:020000040800F2
:100000006007002099060008090200080B0200089A
:100010000F02000813020008170200080000000089
:100020000000000000000000000000001B020008AB
:100030001D020008000000001F0200082102000845
:10004000B3060008B3060008B3060008B3060008AC
:10005000B3060008B3060008B3060008B30600089C
:10006000B3060008B3060008B3060008B30600088C
:10007000B3060008B3060008B3060008B30600087C
:10008000B3060008B3060008B3060008B30600086C
:10009000B3060008B3060008B3060008B30600085C
:1000A000B3060008B3060008B3060008B30600084C
:1000B000B3060008B3060008B3060008B30600083C
:1000C000B3060008B3060008B3060008B30600082C
:1000D000B30600080F060008B3060008B3060008C0
:1000E000B3060008B3060008B3060008B30600080C
:1000F000B3060008B3060008B3060008B3060008FC
:10010000B3060008B3060008B3060008B3060008EB
:10011000B3060008B3060008B3060008B3060008DB
:10012000B3060008B3060008B3060008B3060008CB
:1001300000F002F800F03AF80AA090E8000C8244BF
:100140008344AAF10107DA4501D100F02FF8AFF29C
:10015000090EBAE80F0013F0010F18BFFB1A43F0A5
:1001600001031847E01F000000200000103A24BFE0
:1001700078C878C1FAD8520724BF30C830C144BF0C
:1001800004680C607047000000230024002500264E
:10019000103A28BF78C1FBD8520728BF30C148BFEA
:1001A0000B6070471FB51FBD10B510BD01F098FF63
:1001B0001146FFF7F7FF00F008F801F0B6FF03B4AF
:1001C000FFF7F2FF03BC00F0C7F90124012500F09E
:1001D00059F9002140F2833000F014F913E00120B6
:1001E00000F08DF940F28230844200DD0025012CC0
:1001F00000DA01250DB1641C00E0641EA1B24FF0CD
:10020000804001F025FFEAE7704700BFFEE700BF2E
:10021000FEE700BFFEE700BFFEE77047704770478C
:10022000704700000CB50020019000906C480068F9
:1002300040F480306A49086000BF6948006800F4F3
:10024000003000900198401C0190009818B9019866
:10025000B0F5A06FF1D16248006800F4003010B131
:100260000120009001E0002000900098012843D177
:100270005C48006840F010005A4908600846006871
:1002800020F0030008600846006840F002000860A3
:1002900053484068524948600846406848600846EC
:1002A000406840F4806048600846406820F47C1054
:1002B00048600846406840F4E81048600846006816
:1002C00040F08070086000BF4548006800F0007092
:1002D0000028F9D04248406820F0030040494860B7
:1002E0000846406840F00200486000BF3C48406853
:1002F00000F00C000828F9D10CBD10B5FFF792FFF3
:1003000010BD10B53648006840F00100344908605F
:10031000084640683449084031494860084600684A
:10032000324908402E4908600846006820F48020C1
:1003300008600846406820F4FE0048604FF41F0043
:100340008860FFF7DAFF4FF000602949086010BDB0
:1003500010B5002100200022214B5B6803F00C0146
:1003600021B1042906D0082928D107E0214B224CCD
:10037000236027E01F4B204C236023E0184B5B6871
:1003800003F47010164B5B6803F48032022303EB16
:10039000904022B9194B4343174C23600DE0104B9A
:1003A0005B6803F4003323B1144B4343124C2360C6
:1003B00003E0104B4343104C236003E00D4B0E4C05
:1003C000236000BF00BF064B5B68C3F303130C4CF4
:1003D000E15C094B1B68CB40074C236010BD00005B
:1003E00000100240002002400000FFF8FFFFF6FE70
:1003F00008ED00E000127A000000002000093D0036
:100400000400002030B589B005460C46012108469D
:1004100000F08BFC0121052000F07AFC18208DF8FB
:1004200013000220ADF8100001208DF8120004A97D
:10043000134800F0B1F90020ADF80A001020ADF823
:100440000600ADF80850ADF8044001A9800601F09F
:1004500009F87020ADF814000020ADF81C00012050
:10046000ADF8160005A9800701F07BF80821C80641
:1004700001F08DFC0121880701F050FB09B030BD6F
:100480000008014010B56FF0040000F0F8FE2E489F
:1004900000682E49B0FBF1F02D490870084600783D
:1004A00000EB4001C1EBC0104FF6FF7101EAC00044
:1004B0002849088010BD0146254A12784A434FF06A
:1004C000E0235A6100229A611A46126942F0010241
:1004D0001A6100BF4FF0E022106900F001021AB16A
:1004E00000F48032002AF5D04FF0E022126922F0A9
:1004F00001024FF0E0231A6100229A617047014621
:10050000144A12884A434FF0E0235A6100229A614C
:100510001A46126942F001021A6100BF4FF0E02250
:10052000106900F001021AB100F48032002AF5D0FF
:100530004FF0E022126922F001024FF0E0231A612D
:1005400000229A61704700000000002000127A002B
:100550001400002016000020014600BF704700BFB5
:10056000494A128802F04002002AF9D0C2B2464B32
:100570001B1D1A80704710B586B00446012144F255
:10058000040000F0C5FB4FF40070ADF81400032028
:100590008DF8160018208DF8170005A93B4800F0CB
:1005A000FBF84FF48060ADF8140004208DF81700BC
:1005B00005A9364800F0F0F825208DF8000003204A
:1005C0008DF801008DF8020001208DF803006846C7
:1005D00000F00BFE01940020ADF80800ADF80A0011
:1005E000ADF80C00ADF810000C20ADF80E0001A91C
:1005F000254800F034FC012240F22551224800F049
:10060000C6FC0121204800F0B6FC06B010BD10B5B4
:1006100040F225511C4800F09FFD10B31A4800F02D
:100620001BFDC4B21A48008800F40040C8B918483D
:10063000008800F4804060B10A2C03D000201449E7
:10064000088020E01248008840F4004010490880EB
:1006500019E00D2C06D10E48008840F480400C496A
:10066000088010E00A480088C0F30D0009490C54C6
:1006700007480088401C0649088008460088C728AB
:1006800001DD0020088010BD003801400008014055
:100690001C0000203400002009488047094800471A
:1006A000FEE7FEE7FEE7FEE7FEE7FEE7FEE7FEE722
:1006B000FEE7FEE704480549054A064B704700007F
:1006C00003030008310100086001002060070020DA
:1006D000600300206003002010B50446CC4884422B
:1006E00008D10121042000F02DFB0021042000F09E
:1006F00029FB46E0C748844208D10121082000F0C8
:1007000021FB0021082000F01DFB3AE0C248844292
:1007100008D10121102000F015FB0021102000F06D
:1007200011FB2EE0BD48844208D10121202000F0B9
:1007300009FB0021202000F005FB22E0B84884429C
:1007400008D10121402000F0FDFA0021402000F0F6
:10075000F9FA16E0B348844208D10121802000F064
:10076000F1FA0021802000F0EDFA0AE0AE48844260
:1007700007D10121801500F0E5FA0021A01500F055
:10078000E1FA10BD10B50121084600F0DBFA0021A6
:10079000012000F0D7FA10BD2DE9F04102460025F6
:1007A0000026002000230024002791F803C00CF04D
:1007B0000F0591F803C00CF0100CBCF1000F03D032
:1007C00091F802C04CEA050591F800C0BCF1000F99
:1007D00031D0146800202BE04FF0010C0CFA00F32C
:1007E000B1F800C00CEA03069E4220D183004FF00E
:1007F0000F0C0CFA03F7BC4305FA03FC4CEA0404A3
:1008000091F803C0BCF1280F06D14FF0010C0CFA8F
:1008100000FCC2F814C00AE091F803C0BCF1480F14
:1008200005D14FF0010C0CFA00FCC2F810C0401CBE
:100830000828D1D31460B1F800C0BCF1FF0F34DD3B
:10084000546800202EE000F1080C4FF0010808FA6F
:100850000CF3B1F800C00CEA03069E4221D18300DC
:100860004FF00F0C0CFA03F7BC4305FA03FC4CEAFB
:10087000040491F803C0BCF1280F05D100F1080C65
:1008800008FA0CF8C2F8148091F803C0BCF1480FC4
:1008900007D100F1080C4FF0010808FA0CF8C2F873
:1008A0001080401C0828CED35460BDE8F0814FF67C
:1008B000FF710180022181700421C17070470246DE
:1008C000002093680B400BB1012000E0002070472E
:1008D0000146886880B2704702460020D3680B400A
:1008E0000BB1012000E0002070470146C86880B2CB
:1008F000704701617047416170470AB1016100E0D2
:1009000041617047C16070474FF480320A43826191
:100910008161826182698269704702460020434B8F
:1009200018684FF68073184040EA021008433F4BA6
:10093000186070473E49C8617047F0B50A46002309
:1009400000240021002500F00046B6F1004F02D13E
:10095000364EF16901E0354E7168C0F3034583B24C
:1009600000F44016B6F5401F08D121F070612F4EFB
:10097000766826F070662D4F7E6012E000F48016D7
:10098000B6F5801F06D1032606FA05F4A14341F00F
:10099000706106E0460D360103FA06F6B14341F0F8
:1009A000706122B1460D360103FA06F6314300F0BC
:1009B0000046B6F1004F02D11C4EF16101E01B4E22
:1009C0007160F0BD30B500228B071C0F0F2303FAB6
:1009D00004F2164B08338C1053F824309343134C15
:1009E00008348D1044F8253023468C1053F82430F9
:1009F0008C07240F00FA04F423430C4C08348D10A8
:100A000044F8253030BD0A49DC31086070470000E9
:100A100000080140000C014000100140001401409A
:100A200000180140001C014000200140000001406E
:100A300000002042DF48006840F00100DD49086006
:100A400008464068DC490840DA49486008460068C2
:100A5000DA490840D74908600846006820F4802039
:100A600008600846406820F4FE0048604FF41F000C
:100A700088607047CF49096821F48031CD4A116000
:100A80001146096821F480211160B0F5803F03D040
:100A9000B0F5802F0ED106E0C649096841F48031D7
:100AA000C44A116007E0C349096841F4A021C14A62
:100AB000116000E000BF00BF704710B50146002282
:100AC000002300204A11012A02D1BA4C236806E013
:100AD000022A02D1B74C236A01E0B64C636A01F0E6
:100AE0001F02012494401C400CB1012000E00020B2
:100AF00010BD38B5002000900024002500BF312033
:100B0000FFF7DBFF05460098401C00900098B0F509
:100B1000A06F01D0002DF2D03120FFF7CEFF08B139
:100B2000012400E00024204638BD01460020A14AEF
:100B3000106820F0F80040EAC10010607047A0493A
:100B400008607047024600209A4B586820F47C10D9
:100B500042EA01031843974B58607047984908666A
:100B6000704701460020934A506820F00300084374
:100B7000506070478F48406800F00C007047014695
:100B800000208C4A506820F0F00008435060704705
:100B900001460020874A506820F4E0600843506016
:100BA000704701460020834A506820F4605040EAB4
:100BB000C1005060704729B17E4A527A02437D4B92
:100BC0005A7204E07B4A527A82437A4B5A727047D7
:100BD0007B49D8310860704701460020754A50684B
:100BE00020F440400843506070470021714A203291
:100BF0001170704A82F82010012802D004280AD10E
:100C000004E001216B4A2032117005E00521694A98
:100C10002032117000E000BF00BF704769490860D2
:100C200070476449096A0143624A11627047654925
:100C300044390860704730B50021002200240023A9
:100C40005C4D6D6805F00C0121B1042905D008291F
:100C500023D105E05C4D056022E05B4D05601FE09F
:100C6000544D6D6805F47012524D6D6805F4803472
:100C7000022505EB92421CB9544D554305600BE02B
:100C80004C4D6D6805F400351DB1504D5543056060
:100C900002E04D4D5543056002E04B4D056000BF3D
:100CA00000BF444D6D6805F0F0010909484D6B5CCB
:100CB0000568DD4045603F4D6D6805F4E061090A57
:100CC000434D6B5C4568DD4085603A4D6D6805F4C9
:100CD0006051C90A3E4D6B5C4568DD40C560354DCD
:100CE0006D6805F44041890B3A4D6B5CC568B5FBF6
:100CF000F3F5056130BD29B12E4A526902432D4BEF
:100D00005A6104E02B4A526982432A4B5A61704768
:100D100029B1284A92690243264B9A6104E0254A88
:100D200092698243234B9A61704729B1214AD26963
:100D30000243204BDA6104E01E4AD26982431D4B14
:100D4000DA61704729B11B4AD2680243194BDA6055
:100D500004E0184AD2688243164BDA60704729B122
:100D6000144A12690243134B1A6104E0114A1269D2
:100D70008243104B1A61704712494039086070472E
:100D80000F49C86470470B49C87170470948406AE9
:100D900040F0807007494862704701460020054ACC
:100DA00092680A400AB1012000E000207047014922
:100DB00088727047001002400000FFF8FFFFF6FE47
:100DC000000042428004424200127A0000093D00C5
:100DD0001E0000202E00002010B50446FB4884426F
:100DE00009D101218803FFF7ADFF00214FF48040B6
:100DF000FFF7A8FF32E0F648844209D101214804F8
:100E0000FFF7ADFF00214FF40030FFF7A8FF25E00A
:100E1000F048844209D101218804FFF7A0FF002196
:100E20004FF48020FFF79BFF18E0EB48844209D184
:100E30000121C804FFF793FF00214FF40020FFF7C2
:100E40008EFF0BE0E548844208D101210805FFF739
:100E500086FF00214FF48010FFF781FF10BD2DE9C0
:100E6000F04786B005460E460024A24600BFA146C4
:100E70000027B08900B100BF2F462C8A4CF6FF70C6
:100E80000440F08804432C82AC894EF6F3100440F1
:100E9000B08831890843718908430443AC81AC8A26
:100EA0004FF6FF400440B0890443AC8201A8FFF72D
:100EB000C2FEC648874202D1DDF810A001E0DDF88D
:100EC0000CA0A88900F4004040B10AEBCA0000EB76
:100ED0000A1031684900B0FBF1F807E00AEBCA00DC
:100EE00000EB0A1031688900B0FBF1F86420B8FB10
:100EF000F0F004012009642101FB1089A88900F4A5
:100F0000004040B1322000EBC900B0FBF1F000F02E
:100F10000700044308E0322000EB09106421B0FB15
:100F2000F1F000F00F0004432C8106B0BDE8F0871B
:100F30004FF41651016000218180C18001810C2194
:100F4000418100218181704710B502460020108A3E
:100F50004FF2FF0318400B884C8823438C882343AF
:100F6000CC8823431843108210BD002101804180AA
:100F70008180C180704721B1828942F40052828110
:100F800004E082894DF6FF731A4082817047F0B504
:100F90000346002400260025002040F66A17B942C7
:100FA00000D100BF1846C1F3421401F01F0601270B
:100FB00007FA06F5012C01D10C3004E0022C01D116
:100FC000103000E014301AB107682F43076002E0C8
:100FD0000768AF430760F0BD1AB1838A0B43838271
:100FE00002E0838A8B4383827047028A4FF6F07354
:100FF0001A400282028A0A430282704782894FF2B3
:10100000FF731A40828182890A438281704721B12D
:10101000828942F00202828104E082894FF6FD73E8
:101020001A4082817047028A4FF6DF731A400282AB
:10103000028A0A430282704721B1028A42F4804246
:10104000028204E0028A4BF6FF731A400282704764
:10105000C1F308028280704701468888C0F3080007
:101060007047818941F0010181817047028BD2B2C2
:101070000283028B42EA012202837047028B02F450
:101080007F420283028B0A430283704721B1828A26
:1010900042F02002828204E0828A4FF6DF731A4017
:1010A0008282704721B1828A42F01002828204E07B
:1010B000828A4FF6EF731A408282704721B1828A8A
:1010C00042F00802828204E0828A4FF6F7731A40E7
:1010D0008282704721B1828942F40042828103E01A
:1010E0008289C2F30E028281704721B1828A42F462
:1010F0000062828204E0828A4FF2FF731A40828289
:101100007047828A4FF6FB731A408282828A0A43B2
:101110008282704721B1828A42F00202828204E018
:10112000828A4FF6FD731A40828270470246002081
:10113000B1F5007F00D100BF13880B400BB1012037
:1011400000E00020704701F40072B2F5007F00D18A
:1011500000BFCA430280704770B5024600240023D6
:101160000025002040F66A16B14200D100BFC1F34D
:10117000421501F01F03012606FA03F3012D02D1E7
:101180009689334006E0022D02D1168A334001E0F1
:10119000968A33400C12012606FA04F4168834406D
:1011A00013B10CB1012000E0002070BD10B5002289
:1011B000002340F66A14A14200D100BF0A120124A4
:1011C0009440A3B2DC43048010BD0000003801400D
:1011D0000044004000480040004C004000500040E7
:1011E00031490143314A1160704770B50021002335
:1011F0000F22C47804B32D4C246804F4E064C4F5D1
:10120000E064210AC1F10403CA40447804FA03F1FE
:101210008478144021430901254C0678A1550478AF
:1012200004F01F050124AC4005786D11AD0005F1F7
:10123000E025C5F8004109E0047804F01F05012409
:10124000AC401C4D0678761145F8264070BD1A4A10
:101250000A400243154B1B1F1A60704739B1134AED
:10126000121D12680243114B1B1D1A6006E00F4A43
:10127000121D126882430D4B1B1D1A607047042813
:1012800008D14FF0E021096941F004014FF0E0225C
:10129000116107E04FF0E021096921F004014FF0EE
:1012A000E0221161704700000000FA050CED00E03B
:1012B00000E400E080E100E080FFFF1F10B504467D
:1012C000FE48844208D10121C014FFF73BFD0021F4
:1012D000E014FFF737FDC4E0B4F1804F08D10121DD
:1012E0000846FFF73CFD00210120FFF738FDB8E07C
:1012F000F348844208D101210220FFF730FD00218C
:101300000220FFF72CFDACE0EE48844208D1012119
:101310000420FFF724FD00210420FFF720FDA0E0BA
:10132000E948844208D101210820FFF718FD002177
:101330000820FFF714FD94E0E448844208D101211D
:101340001020FFF70CFD00211020FFF708FD88E0BA
:10135000DF48844208D101212020FFF700FD002151
:101360002020FFF7FCFC7CE0DA48844208D1012110
:101370004014FFF7E7FC00216014FFF7E3FC70E086
:10138000D548844209D10121C804FFF7DBFC0021C4
:101390004FF40020FFF7D6FC63E0D048844209D127
:1013A00001210805FFF7CEFC00214FF48010FFF764
:1013B000C9FC56E0CA48844209D101214805FFF71B
:1013C000C1FC00214FF40010FFF7BCFC49E0C54808
:1013D000844208D101214020FFF7C1FC00214020B8
:1013E000FFF7BDFC3DE0C048844208D101218020C8
:1013F000FFF7B5FC00218020FFF7B1FC31E0BB48CE
:10140000844208D101218015FFF7A9FC0021A01515
:10141000FFF7A5FC25E0B648844209D10121080464
:10142000FFF790FC00214FF48030FFF78BFC18E0B1
:10143000B048844209D101214804FFF783FC002110
:101440004FF40030FFF77EFC0BE0AB48844208D13C
:1014500001218804FFF776FC00214FF48020FFF77C
:1014600071FC10BD00220288944B98420ED0994B1B
:1014700098420BD0B0F1804F08D0914B984205D0E4
:10148000904B984202D0904B984204D14FF68F7304
:101490001A404B881A438D4B984207D08C4B984288
:1014A00004D04FF6FF431A40CB881A4302808B8842
:1014B00083850B880385814B98420BD0854B9842DE
:1014C00008D08B4B984205D08A4B984202D08A4B69
:1014D000984201D10B7A038601238382704770B54D
:1014E000002400220023058C4FF6FE76354005844B
:1014F000028C8388048B4FF68F752C40B51E2C40D0
:101500000D882C43751E2A400D892A434D882A4395
:101510006A4DA8420BD06F4DA84208D0744DA84226
:1015200005D0744DA84202D0734DA84213D14FF696
:10153000F7752A404D892A434FF6FB752A408D885E
:101540002A434FF6FF652B404FF6FF552B408D8900
:101550002B43CD892B4383800483CD8885860284E9
:1015600070BD70B5002400220023058C4FF6EF7685
:1015700035400584028C8388048B48F6FF752C4027
:101580004FF6FF452C400D884FF6FF7606EA0525FD
:101590002C434FF6DF752A400D8906EA05152A43CC
:1015A0004D8806EA05152A43444DA84202D0494D0C
:1015B000A8421DD14FF67F752A404D894FF6FF7620
:1015C00006EA05152A434FF6BF752A408D8806EABC
:1015D00005152A434FF6FF352B404FF2FF752B4080
:1015E0008D8906EA85052B43CD8906EA85052B43BF
:1015F00083800483CD880587028470BD70B5002484
:1016000000220023058C4FF6FF6635400584028CCE
:101610008388848B4FF68F752C404FF6FC752C40D9
:101620000D882C434FF6FF552A400D894FF6FF7663
:1016300006EA05252A434D8806EA05252A431F4D5B
:10164000A84202D0234DA8421DD14FF2FF752A4077
:101650004D894FF6FF7606EA05252A434FF6FF35FA
:101660002A408D8806EA05252A434EF6FF752B4051
:101670004DF6FF752B408D8906EA05152B43CD8964
:1016800006EA05152B4383808483CD8885870284F1
:1016900070BD70B5002200230024058C4EF6FF7645
:1016A00035400584038C8488828B48F6FF752A4078
:1016B0004FF6FF452A400D8820E00000002C014035
:1016C0000004004000080040000C004000100040F2
:1016D0000014004000340140004C01400050014023
:1016E0000054014000180040001C00400020004051
:1016F0000040014000440140004801404FF6FF76A1
:1017000006EA05252A434DF6FF752B400D8906EAAA
:1017100005352B434D8806EA05352B43FA4DA84283
:1017200002D0FA4DA84208D14BF6FF752C408D89A6
:101730004FF6FF7606EA85152C4384808283CD8898
:10174000A0F84050038470BD828B4FF2FF331A40E3
:101750008283828B4FF6FF7303EA01231A4382834D
:101760007047F0B50C461546002200210026078C74
:101770004EF6FF7C07EA0C070784828B018C4FF63C
:10178000FF7707EA043640F6FF473A404FF6FF7707
:1017900007EA05273A434FF6FF7707EA03373A434C
:1017A000D94FB8420ED0D94FB8420BD0B0F1804FCC
:1017B00008D0D74FB84205D0D64FB84202D0D64F46
:1017C000B84206D14DF6FF77394046F48057394389
:1017D00005E047F6FF57394044F480573943828388
:1017E0000184F0BD828B4FF6F3731A408283828BA3
:1017F0000A4382837047F0B50C461546002200214B
:101800000026078C4FF6FF6C07EA0C070784828BD3
:10181000018C4FF6FF7707EA04264FF60C773A4023
:101820004FF6FF7707EA03172F433A43B64FB84204
:101830000ED0B64FB8420BD0B0F1804F08D0B44FA5
:10184000B84205D0B34FB84202D0B34FB84206D128
:101850004FF6FF57394046F48077394305E04FF2A1
:10186000FF57394044F48077394382830184F0BDC7
:10187000028B4FF2FF331A400283028B4FF6FF7345
:1018800003EA01231A4302837047F0B50C4615465C
:10189000002200210026078C4FF6EF7C07EA0C0798
:1018A0000784028B018C4FF6FF7707EA041640F697
:1018B000FF473A404FF6FF7707EA03373A434FF6C0
:1018C000FF7707EA05273A438F4FB8420ED08F4F74
:1018D000B8420BD0B0F1804F08D08D4FB84205D040
:1018E0008C4FB84202D08C4FB84206D14FF6DF770A
:1018F000394046F01007394305E04FF65F7739402D
:1019000044F01007394302830184F0BD028B4FF687
:10191000F3731A400283028B0A4302837047F0B5C7
:101920000C46154600220021068C4FF6FE773E40FD
:101930000684028B018C4FF60C7632407E1C06EA40
:1019400003162E433243704EB0420ED06F4EB0425B
:101950000BD0B0F1804F08D06D4EB04205D06D4E27
:10196000B04202D06C4EB04206D14FF6FD76314007
:1019700044F00106314305E04FF6F576314044F07E
:101980000106314302830184F0BD70B505460C4663
:101990005D4885420ED05D4885420BD0B5F1804F41
:1019A00008D05B48854205D05A48854202D05A4843
:1019B000854200D100E000BF208850B92389A28869
:1019C00061882846FFF7ABFFE1882846FFF79EFFB6
:1019D00025E0208804280AD12389A2886188284626
:1019E000FFF753FFE1882846FFF742FF17E0208802
:1019F00008280AD12389A28861882846FFF7FBFEC0
:101A0000E1882846FFF7EEFE09E02389A288618875
:101A10002846FFF7A6FEE1882846FFF795FE70BD31
:101A20002DE9F04105460C4600260127608808B9DB
:101A3000022600E00026A088012801D1022700E04C
:101A400001272088A0B92389A28861882846FFF74A
:101A500066FFE1882846FFF759FF23893A46314659
:101A60002846FFF712FFE1882846FFF701FF13E041
:101A70002389A28861882846FFF707FFE188284666
:101A8000FFF7F6FE23893A4631462846FFF747FF1F
:101A9000E1882846FFF73AFFBDE8F0810A884B88C5
:101AA0001A438B881A43CB881A430B891A434B89F4
:101AB0001A438B891A43A0F8442070474FF6FF71F0
:101AC000818000210180C180418001727047002126
:101AD000018041808180C180018141818181C181FA
:101AE0007047002101804180012181800021C18057
:101AF000018170470021018041808180C180018186
:101B00004181818170470000002C01400034014078
:101B10000004004000080040000C004021B1028891
:101B200042F00102028004E002884FF6FE731A4080
:101B30000280704731B1B0F8442042F40042A0F86E
:101B4000442005E0B0F84420C2F30E02A0F844207F
:101B500070471AB183890B43838102E083898B43E9
:101B6000838170478182704741EA0203A0F84830C0
:101B700070471AB183890B43838102E083898B43C9
:101B80008381704701894FF6F872114001817047D7
:101B90000A46002101894FF68F73194011430181D4
:101BA000704730B504460D4629462046FFF7F0FF42
:101BB000208940F00700208130BD2DE9F041044626
:101BC0000D4616461F46602D06D13B460122314682
:101BD0002046FFF75AFE05E03B46012231462046EB
:101BE000FFF79DFE29462046FFF7D2FF208940F0EF
:101BF00007002081BDE8F08130B50C460021018945
:101C0000C9B24FF6FF7505EA03251543254329435D
:101C1000018130BD2DE9F04105460E461746984634
:101C2000002443463A4631462846FFF7E5FF2C8913
:101C30004FF6F870044044F007044FF68F700440EC
:101C400044F070042C81BDE8F081F0B504460D46E7
:101C500016461F463B46324629462046FFF7CCFF34
:101C6000208940F480402081F0BD01858282704748
:101C70000A46002101884FF68F73194011430180F5
:101C80007047F0B50C4615461E4600210022002381
:101C90000189028B038C4FF6F877394021434FF6C8
:101CA000FC473A4040F201173A434FF6DD773B409C
:101CB0004FF6FF7707EA06172F433B430181028364
:101CC0000384F0BD0A460021018B4FF68F73194043
:101CD0001143018370470A460021018B48F6FF73C8
:101CE00019404FF6FF7303EA02231943018370473B
:101CF0000A460021818B4FF68F731940114381836F
:101D000070470A460021818B48F6FF7319404FF651
:101D1000FF7303EA022319438183704721B10288CC
:101D200042F08002028004E002884FF67F731A407E
:101D30000280704721B1828842F00402828004E070
:101D400082884FF6FB731A408280704721B18288E7
:101D500042F00802828004E082884FF6F7731A404E
:101D60008280704721B1828842F00102828004E0C3
:101D700082884FF6FE731A40828070470A4600211F
:101D8000018B4FF6F77319401143018370470A46E0
:101D90000021018B4FF2FF7319404FF6FF7303EAE6
:101DA00002231943018370470A460021818B4FF6B5
:101DB000F77319401143818370470A460021818BD4
:101DC0004FF2FF7319404FF6FF7303EA02231943E2
:101DD000818370470A460021018B4FF6FB7319403F
:101DE0001143018370470A460021018B4FF6FF33F0
:101DF00019404FF6FF7303EA02231943018370472A
:101E00000A460021818B4FF6FB73194011438183F1
:101E100070470A460021818B4FF6FF3319404FF679
:101E2000FF7303EA02231943818370470A460021A6
:101E3000018B4FF67F7319401143018370470A46A7
:101E40000021018BC1F30E014FF6FF7303EA022359
:101E50001943018370470A460021818B4FF67F7337
:101E600019401143818370470A460021818BC1F3D9
:101E70000E014FF6FF7303EA022319438183704773
:101E80000A460021018C4FF6FD731940114301846D
:101E900070470A460021018C4FF6F7731940114331
:101EA000018470470A460021018C4FF6DF73194008
:101EB0004FF6FF7303EA02131943018470470A4681
:101EC0000021018C4FF67F7319404FF6FF7303EA30
:101ED00002131943018470470A460021018C4FF612
:101EE000FF5319404FF6FF7303EA0223194301849D
:101EF00070470A460021018C4FF2FF7319404FF6DC
:101F0000FF7303EA02231943018470470A46002144
:101F1000018C4DF6FF7319404FF6FF7303EA02334D
:101F200019430184704730B5002301248C40A3B2CB
:101F3000048C9C430484048C02FA01F5ADB22C435A
:101F4000048430BD30B5002304248C40A3B2048C3B
:101F50009C430484048C02FA01F5ADB22C43048442
:101F600030BD70B503460020002418461830012506
:101F70008D40ACB21D8CA5431D8409B1082909D13F
:101F800000EB6100056825F07005056005681543E4
:101F900005600EE00D1FC5F34E052844056825F4C5
:101FA000E045056005684FF6FF7606EA02263543F0
:101FB000056070BD21B1028842F00202028004E097
:101FC00002884FF6FD731A400280704721B10288E3
:101FD00042F00402028004E002884FF6FB731A40CC
:101FE0000280704721B1828842F08002828004E042
:101FF00082884FF67F731A408280704702884FF6BE
:10200000F7731A40028002880A4302807047828870
:102010004FF68F731A40828082880A43828070470D
:1020200002894FF6F8731A40028102890A4302813D
:10203000704702894FF67F731A40028102890A4372
:10204000028170478184704781857047818670471F
:102050000187704781877047A0F840107047028859
:102060004FF6FF431A40028002880A4302807047FD
:102070000146888E70470146088F70470146888F59
:1020800070470146B1F8400070470146888C7047A0
:102090000146088D704702460020138A0B400BB1A1
:1020A000012000E000207047CA430282704730B52B
:1020B0000246002000230024158A05EA01039589C1
:1020C00005EA010413B10CB1012000E0002030BD8D
:1020D000CA43028270477047704770477047704725
:1020E000754600F02BF8AE4605006946534620F0D1
:1020F0000700854618B020B5FEF7DCFABDE82040A1
:102100004FF000064FF000074FF000084FF0000BB3
:1021100021F00701AC46ACE8C009ACE8C009ACE866
:10212000C009ACE8C0098D46704710B50446AFF34E
:1021300000802046BDE81040FEF741B800487047D7
:10214000FC00002064210008000000203400000092
:102150006C01000898210008340000202C070000C2
:102160008801000800A24A040000000000000000EE
:102170000102030406070809000000000000000037
:10218000000000000000010203040102030406072E
:08219000080902040608000022
:0400000508000131BD
:00000001FF
